{
  "_format": "hh-sol-artifact-1",
  "contractName": "A8BallCueMinter",
  "sourceName": "contracts/A8Ball/Minter/A8BallCueMinter.sol",
  "abi": [
    {
      "inputs": [],
      "stateMutability": "nonpayable",
      "type": "constructor"
    },
    {
      "anonymous": false,
      "inputs": [
        {
          "indexed": false,
          "internalType": "address",
          "name": "previousAdmin",
          "type": "address"
        },
        {
          "indexed": false,
          "internalType": "address",
          "name": "newAdmin",
          "type": "address"
        }
      ],
      "name": "AdminChanged",
      "type": "event"
    },
    {
      "anonymous": false,
      "inputs": [
        {
          "indexed": true,
          "internalType": "address",
          "name": "beacon",
          "type": "address"
        }
      ],
      "name": "BeaconUpgraded",
      "type": "event"
    },
    {
      "anonymous": false,
      "inputs": [
        {
          "indexed": true,
          "internalType": "address",
          "name": "from",
          "type": "address"
        },
        {
          "indexed": false,
          "internalType": "uint256",
          "name": "tokenId",
          "type": "uint256"
        },
        {
          "indexed": false,
          "internalType": "uint256",
          "name": "collectionId",
          "type": "uint256"
        },
        {
          "indexed": false,
          "internalType": "enum I8BallCommon.Rarity",
          "name": "rarity",
          "type": "uint8"
        },
        {
          "indexed": false,
          "internalType": "uint256",
          "name": "price",
          "type": "uint256"
        }
      ],
      "name": "CuePurchased",
      "type": "event"
    },
    {
      "anonymous": false,
      "inputs": [
        {
          "indexed": true,
          "internalType": "address",
          "name": "from",
          "type": "address"
        },
        {
          "indexed": false,
          "internalType": "uint256",
          "name": "tokenId",
          "type": "uint256"
        },
        {
          "indexed": false,
          "internalType": "uint256",
          "name": "collectionId",
          "type": "uint256"
        },
        {
          "indexed": false,
          "internalType": "enum I8BallCommon.Rarity",
          "name": "rarity",
          "type": "uint8"
        },
        {
          "indexed": false,
          "internalType": "uint256",
          "name": "price",
          "type": "uint256"
        }
      ],
      "name": "CueUpgraded",
      "type": "event"
    },
    {
      "anonymous": false,
      "inputs": [
        {
          "indexed": false,
          "internalType": "uint8",
          "name": "version",
          "type": "uint8"
        }
      ],
      "name": "Initialized",
      "type": "event"
    },
    {
      "anonymous": false,
      "inputs": [
        {
          "indexed": false,
          "internalType": "uint256",
          "name": "rand",
          "type": "uint256"
        },
        {
          "indexed": false,
          "internalType": "uint256",
          "name": "sum",
          "type": "uint256"
        },
        {
          "indexed": false,
          "internalType": "uint256",
          "name": "result",
          "type": "uint256"
        },
        {
          "indexed": false,
          "internalType": "uint256",
          "name": "max",
          "type": "uint256"
        },
        {
          "indexed": false,
          "internalType": "uint256[]",
          "name": "designIds",
          "type": "uint256[]"
        },
        {
          "indexed": false,
          "internalType": "uint256",
          "name": "designId",
          "type": "uint256"
        }
      ],
      "name": "MandoHasWeightedDice",
      "type": "event"
    },
    {
      "anonymous": false,
      "inputs": [
        {
          "indexed": false,
          "internalType": "address",
          "name": "account",
          "type": "address"
        }
      ],
      "name": "Paused",
      "type": "event"
    },
    {
      "anonymous": false,
      "inputs": [
        {
          "indexed": true,
          "internalType": "bytes32",
          "name": "role",
          "type": "bytes32"
        },
        {
          "indexed": true,
          "internalType": "bytes32",
          "name": "previousAdminRole",
          "type": "bytes32"
        },
        {
          "indexed": true,
          "internalType": "bytes32",
          "name": "newAdminRole",
          "type": "bytes32"
        }
      ],
      "name": "RoleAdminChanged",
      "type": "event"
    },
    {
      "anonymous": false,
      "inputs": [
        {
          "indexed": true,
          "internalType": "bytes32",
          "name": "role",
          "type": "bytes32"
        },
        {
          "indexed": true,
          "internalType": "address",
          "name": "account",
          "type": "address"
        },
        {
          "indexed": true,
          "internalType": "address",
          "name": "sender",
          "type": "address"
        }
      ],
      "name": "RoleGranted",
      "type": "event"
    },
    {
      "anonymous": false,
      "inputs": [
        {
          "indexed": true,
          "internalType": "bytes32",
          "name": "role",
          "type": "bytes32"
        },
        {
          "indexed": true,
          "internalType": "address",
          "name": "account",
          "type": "address"
        },
        {
          "indexed": true,
          "internalType": "address",
          "name": "sender",
          "type": "address"
        }
      ],
      "name": "RoleRevoked",
      "type": "event"
    },
    {
      "anonymous": false,
      "inputs": [
        {
          "indexed": true,
          "internalType": "address",
          "name": "from",
          "type": "address"
        },
        {
          "indexed": true,
          "internalType": "address",
          "name": "to",
          "type": "address"
        },
        {
          "indexed": false,
          "internalType": "uint256",
          "name": "collectionId",
          "type": "uint256"
        },
        {
          "indexed": false,
          "internalType": "uint256",
          "name": "amount",
          "type": "uint256"
        }
      ],
      "name": "RoyaltyPaid",
      "type": "event"
    },
    {
      "anonymous": false,
      "inputs": [
        {
          "indexed": true,
          "internalType": "address",
          "name": "from",
          "type": "address"
        },
        {
          "indexed": true,
          "internalType": "address",
          "name": "to",
          "type": "address"
        },
        {
          "indexed": false,
          "internalType": "uint256",
          "name": "collectionId",
          "type": "uint256"
        },
        {
          "indexed": false,
          "internalType": "uint256",
          "name": "amount",
          "type": "uint256"
        }
      ],
      "name": "RoyaltyShareFailed",
      "type": "event"
    },
    {
      "anonymous": false,
      "inputs": [
        {
          "indexed": false,
          "internalType": "address",
          "name": "account",
          "type": "address"
        }
      ],
      "name": "Unpaused",
      "type": "event"
    },
    {
      "anonymous": false,
      "inputs": [
        {
          "indexed": true,
          "internalType": "address",
          "name": "implementation",
          "type": "address"
        }
      ],
      "name": "Upgraded",
      "type": "event"
    },
    {
      "inputs": [],
      "name": "DEFAULT_ADMIN_ROLE",
      "outputs": [
        {
          "internalType": "bytes32",
          "name": "",
          "type": "bytes32"
        }
      ],
      "stateMutability": "view",
      "type": "function"
    },
    {
      "inputs": [
        {
          "internalType": "uint256",
          "name": "collectionId",
          "type": "uint256"
        },
        {
          "internalType": "string",
          "name": "name",
          "type": "string"
        },
        {
          "components": [
            {
              "internalType": "uint256",
              "name": "startTime",
              "type": "uint256"
            },
            {
              "internalType": "uint256",
              "name": "price",
              "type": "uint256"
            }
          ],
          "internalType": "struct I8BallCueMinter.MintConfig",
          "name": "mintConfig",
          "type": "tuple"
        },
        {
          "components": [
            {
              "internalType": "uint256",
              "name": "duration",
              "type": "uint256"
            },
            {
              "internalType": "uint256",
              "name": "discount",
              "type": "uint256"
            }
          ],
          "internalType": "struct I8BallCueMinter.AllowlistConfig",
          "name": "allowlistConfig",
          "type": "tuple"
        },
        {
          "internalType": "bool",
          "name": "random",
          "type": "bool"
        },
        {
          "internalType": "bool",
          "name": "exists",
          "type": "bool"
        }
      ],
      "name": "addCollection",
      "outputs": [],
      "stateMutability": "nonpayable",
      "type": "function"
    },
    {
      "inputs": [
        {
          "internalType": "uint256",
          "name": "collectionId",
          "type": "uint256"
        },
        {
          "components": [
            {
              "internalType": "enum I8BallCommon.Rarity",
              "name": "rarity",
              "type": "uint8"
            },
            {
              "internalType": "uint256",
              "name": "id",
              "type": "uint256"
            },
            {
              "internalType": "uint256",
              "name": "remaining",
              "type": "uint256"
            },
            {
              "internalType": "string",
              "name": "name",
              "type": "string"
            }
          ],
          "internalType": "struct I8BallCommon.Design[]",
          "name": "designs",
          "type": "tuple[]"
        }
      ],
      "name": "addCollectionDesigns",
      "outputs": [],
      "stateMutability": "nonpayable",
      "type": "function"
    },
    {
      "inputs": [
        {
          "internalType": "address",
          "name": "wallet",
          "type": "address"
        },
        {
          "internalType": "uint256",
          "name": "_credits",
          "type": "uint256"
        }
      ],
      "name": "addCredits",
      "outputs": [],
      "stateMutability": "nonpayable",
      "type": "function"
    },
    {
      "inputs": [
        {
          "internalType": "uint256",
          "name": "collectionId",
          "type": "uint256"
        },
        {
          "internalType": "address[]",
          "name": "wallets",
          "type": "address[]"
        }
      ],
      "name": "addToCollectionAllowlist",
      "outputs": [],
      "stateMutability": "nonpayable",
      "type": "function"
    },
    {
      "inputs": [
        {
          "internalType": "address",
          "name": "wallet",
          "type": "address"
        },
        {
          "internalType": "uint256",
          "name": "_credits",
          "type": "uint256"
        }
      ],
      "name": "addUpgradeCredits",
      "outputs": [],
      "stateMutability": "nonpayable",
      "type": "function"
    },
    {
      "inputs": [
        {
          "internalType": "uint256",
          "name": "collectionId",
          "type": "uint256"
        }
      ],
      "name": "buyRandomCue",
      "outputs": [],
      "stateMutability": "payable",
      "type": "function"
    },
    {
      "inputs": [
        {
          "internalType": "address",
          "name": "",
          "type": "address"
        }
      ],
      "name": "credits",
      "outputs": [
        {
          "internalType": "uint256",
          "name": "",
          "type": "uint256"
        }
      ],
      "stateMutability": "view",
      "type": "function"
    },
    {
      "inputs": [],
      "name": "cue",
      "outputs": [
        {
          "internalType": "address",
          "name": "",
          "type": "address"
        }
      ],
      "stateMutability": "view",
      "type": "function"
    },
    {
      "inputs": [
        {
          "internalType": "uint256",
          "name": "collectionId",
          "type": "uint256"
        }
      ],
      "name": "getCollectionAllowlist",
      "outputs": [
        {
          "internalType": "address[]",
          "name": "",
          "type": "address[]"
        }
      ],
      "stateMutability": "view",
      "type": "function"
    },
    {
      "inputs": [
        {
          "internalType": "uint256",
          "name": "collectionId",
          "type": "uint256"
        }
      ],
      "name": "getCollectionAllowlistConfig",
      "outputs": [
        {
          "components": [
            {
              "internalType": "uint256",
              "name": "duration",
              "type": "uint256"
            },
            {
              "internalType": "uint256",
              "name": "discount",
              "type": "uint256"
            }
          ],
          "internalType": "struct I8BallCueMinter.AllowlistConfig",
          "name": "",
          "type": "tuple"
        }
      ],
      "stateMutability": "view",
      "type": "function"
    },
    {
      "inputs": [
        {
          "internalType": "uint256",
          "name": "collectionId",
          "type": "uint256"
        },
        {
          "internalType": "uint256",
          "name": "designId",
          "type": "uint256"
        }
      ],
      "name": "getCollectionDesign",
      "outputs": [
        {
          "components": [
            {
              "internalType": "enum I8BallCommon.Rarity",
              "name": "rarity",
              "type": "uint8"
            },
            {
              "internalType": "uint256",
              "name": "remaining",
              "type": "uint256"
            }
          ],
          "internalType": "struct I8BallCueMinter.DesignBase",
          "name": "",
          "type": "tuple"
        }
      ],
      "stateMutability": "view",
      "type": "function"
    },
    {
      "inputs": [
        {
          "internalType": "uint256",
          "name": "collectionId",
          "type": "uint256"
        }
      ],
      "name": "getCollectionDesignIds",
      "outputs": [
        {
          "internalType": "uint256[]",
          "name": "",
          "type": "uint256[]"
        }
      ],
      "stateMutability": "view",
      "type": "function"
    },
    {
      "inputs": [],
      "name": "getCollectionIds",
      "outputs": [
        {
          "internalType": "uint256[]",
          "name": "",
          "type": "uint256[]"
        }
      ],
      "stateMutability": "view",
      "type": "function"
    },
    {
      "inputs": [
        {
          "internalType": "uint256",
          "name": "collectionId",
          "type": "uint256"
        }
      ],
      "name": "getCollectionMintConfig",
      "outputs": [
        {
          "components": [
            {
              "internalType": "uint256",
              "name": "startTime",
              "type": "uint256"
            },
            {
              "internalType": "uint256",
              "name": "price",
              "type": "uint256"
            }
          ],
          "internalType": "struct I8BallCueMinter.MintConfig",
          "name": "",
          "type": "tuple"
        }
      ],
      "stateMutability": "view",
      "type": "function"
    },
    {
      "inputs": [
        {
          "internalType": "uint256",
          "name": "collectionId",
          "type": "uint256"
        }
      ],
      "name": "getCollectionRandom",
      "outputs": [
        {
          "internalType": "bool",
          "name": "",
          "type": "bool"
        }
      ],
      "stateMutability": "view",
      "type": "function"
    },
    {
      "inputs": [
        {
          "internalType": "uint256",
          "name": "collectionId",
          "type": "uint256"
        }
      ],
      "name": "getCollectionRoyaltyConfig",
      "outputs": [
        {
          "components": [
            {
              "internalType": "address",
              "name": "treasury",
              "type": "address"
            },
            {
              "internalType": "uint256",
              "name": "basisPoints",
              "type": "uint256"
            }
          ],
          "internalType": "struct I8BallCueMinter.RoyaltyConfig",
          "name": "",
          "type": "tuple"
        }
      ],
      "stateMutability": "view",
      "type": "function"
    },
    {
      "inputs": [
        {
          "internalType": "uint256",
          "name": "collectionId",
          "type": "uint256"
        }
      ],
      "name": "getMintPrice",
      "outputs": [
        {
          "internalType": "uint256",
          "name": "",
          "type": "uint256"
        }
      ],
      "stateMutability": "view",
      "type": "function"
    },
    {
      "inputs": [
        {
          "internalType": "bytes32",
          "name": "role",
          "type": "bytes32"
        }
      ],
      "name": "getRoleAdmin",
      "outputs": [
        {
          "internalType": "bytes32",
          "name": "",
          "type": "bytes32"
        }
      ],
      "stateMutability": "view",
      "type": "function"
    },
    {
      "inputs": [
        {
          "internalType": "bytes32",
          "name": "role",
          "type": "bytes32"
        },
        {
          "internalType": "uint256",
          "name": "index",
          "type": "uint256"
        }
      ],
      "name": "getRoleMember",
      "outputs": [
        {
          "internalType": "address",
          "name": "",
          "type": "address"
        }
      ],
      "stateMutability": "view",
      "type": "function"
    },
    {
      "inputs": [
        {
          "internalType": "bytes32",
          "name": "role",
          "type": "bytes32"
        }
      ],
      "name": "getRoleMemberCount",
      "outputs": [
        {
          "internalType": "uint256",
          "name": "",
          "type": "uint256"
        }
      ],
      "stateMutability": "view",
      "type": "function"
    },
    {
      "inputs": [
        {
          "internalType": "bytes32",
          "name": "role",
          "type": "bytes32"
        },
        {
          "internalType": "address",
          "name": "account",
          "type": "address"
        }
      ],
      "name": "grantRole",
      "outputs": [],
      "stateMutability": "nonpayable",
      "type": "function"
    },
    {
      "inputs": [
        {
          "internalType": "bytes32",
          "name": "role",
          "type": "bytes32"
        },
        {
          "internalType": "address",
          "name": "account",
          "type": "address"
        }
      ],
      "name": "hasRole",
      "outputs": [
        {
          "internalType": "bool",
          "name": "",
          "type": "bool"
        }
      ],
      "stateMutability": "view",
      "type": "function"
    },
    {
      "inputs": [],
      "name": "initialize",
      "outputs": [],
      "stateMutability": "nonpayable",
      "type": "function"
    },
    {
      "inputs": [
        {
          "internalType": "uint256",
          "name": "collectionId",
          "type": "uint256"
        },
        {
          "internalType": "address",
          "name": "wallet",
          "type": "address"
        }
      ],
      "name": "isAllowlisted",
      "outputs": [
        {
          "internalType": "bool",
          "name": "",
          "type": "bool"
        }
      ],
      "stateMutability": "view",
      "type": "function"
    },
    {
      "inputs": [],
      "name": "mintRandomCue",
      "outputs": [],
      "stateMutability": "nonpayable",
      "type": "function"
    },
    {
      "inputs": [
        {
          "internalType": "uint256",
          "name": "collectionId",
          "type": "uint256"
        },
        {
          "internalType": "uint256",
          "name": "designId",
          "type": "uint256"
        }
      ],
      "name": "mintSpecificCue",
      "outputs": [],
      "stateMutability": "payable",
      "type": "function"
    },
    {
      "inputs": [],
      "name": "pause",
      "outputs": [],
      "stateMutability": "nonpayable",
      "type": "function"
    },
    {
      "inputs": [],
      "name": "paused",
      "outputs": [
        {
          "internalType": "bool",
          "name": "",
          "type": "bool"
        }
      ],
      "stateMutability": "view",
      "type": "function"
    },
    {
      "inputs": [],
      "name": "proxiableUUID",
      "outputs": [
        {
          "internalType": "bytes32",
          "name": "",
          "type": "bytes32"
        }
      ],
      "stateMutability": "view",
      "type": "function"
    },
    {
      "inputs": [
        {
          "internalType": "uint256",
          "name": "requestId",
          "type": "uint256"
        },
        {
          "internalType": "uint256[]",
          "name": "randomWords",
          "type": "uint256[]"
        }
      ],
      "name": "rawFulfillRandomWords",
      "outputs": [],
      "stateMutability": "nonpayable",
      "type": "function"
    },
    {
      "inputs": [
        {
          "internalType": "address",
          "name": "wallet",
          "type": "address"
        },
        {
          "internalType": "uint256",
          "name": "_credits",
          "type": "uint256"
        }
      ],
      "name": "removeCredits",
      "outputs": [],
      "stateMutability": "nonpayable",
      "type": "function"
    },
    {
      "inputs": [
        {
          "internalType": "uint256",
          "name": "collectionId",
          "type": "uint256"
        },
        {
          "internalType": "address[]",
          "name": "wallets",
          "type": "address[]"
        }
      ],
      "name": "removeFromCollectionAllowlist",
      "outputs": [],
      "stateMutability": "nonpayable",
      "type": "function"
    },
    {
      "inputs": [
        {
          "internalType": "address",
          "name": "wallet",
          "type": "address"
        },
        {
          "internalType": "uint256",
          "name": "_credits",
          "type": "uint256"
        }
      ],
      "name": "removeUpgradeCredits",
      "outputs": [],
      "stateMutability": "nonpayable",
      "type": "function"
    },
    {
      "inputs": [
        {
          "internalType": "bytes32",
          "name": "role",
          "type": "bytes32"
        },
        {
          "internalType": "address",
          "name": "account",
          "type": "address"
        }
      ],
      "name": "renounceRole",
      "outputs": [],
      "stateMutability": "nonpayable",
      "type": "function"
    },
    {
      "inputs": [
        {
          "internalType": "address",
          "name": "requester",
          "type": "address"
        }
      ],
      "name": "requestOf",
      "outputs": [
        {
          "components": [
            {
              "internalType": "uint256",
              "name": "id",
              "type": "uint256"
            },
            {
              "internalType": "uint256[]",
              "name": "links",
              "type": "uint256[]"
            },
            {
              "internalType": "uint256[]",
              "name": "words",
              "type": "uint256[]"
            }
          ],
          "internalType": "struct IChainlinkVRFConsumer.Request",
          "name": "",
          "type": "tuple"
        }
      ],
      "stateMutability": "view",
      "type": "function"
    },
    {
      "inputs": [
        {
          "internalType": "bytes32",
          "name": "role",
          "type": "bytes32"
        },
        {
          "internalType": "address",
          "name": "account",
          "type": "address"
        }
      ],
      "name": "revokeRole",
      "outputs": [],
      "stateMutability": "nonpayable",
      "type": "function"
    },
    {
      "inputs": [
        {
          "internalType": "uint256",
          "name": "collectionId",
          "type": "uint256"
        },
        {
          "components": [
            {
              "internalType": "uint256",
              "name": "duration",
              "type": "uint256"
            },
            {
              "internalType": "uint256",
              "name": "discount",
              "type": "uint256"
            }
          ],
          "internalType": "struct I8BallCueMinter.AllowlistConfig",
          "name": "config",
          "type": "tuple"
        }
      ],
      "name": "setCollectionAllowlistConfig",
      "outputs": [],
      "stateMutability": "nonpayable",
      "type": "function"
    },
    {
      "inputs": [
        {
          "internalType": "uint256",
          "name": "collectionId",
          "type": "uint256"
        },
        {
          "components": [
            {
              "internalType": "uint256",
              "name": "startTime",
              "type": "uint256"
            },
            {
              "internalType": "uint256",
              "name": "price",
              "type": "uint256"
            }
          ],
          "internalType": "struct I8BallCueMinter.MintConfig",
          "name": "config",
          "type": "tuple"
        }
      ],
      "name": "setCollectionMintConfig",
      "outputs": [],
      "stateMutability": "nonpayable",
      "type": "function"
    },
    {
      "inputs": [
        {
          "internalType": "uint256",
          "name": "collectionId",
          "type": "uint256"
        },
        {
          "internalType": "bool",
          "name": "random",
          "type": "bool"
        }
      ],
      "name": "setCollectionRandom",
      "outputs": [],
      "stateMutability": "nonpayable",
      "type": "function"
    },
    {
      "inputs": [
        {
          "internalType": "uint256",
          "name": "collectionId",
          "type": "uint256"
        },
        {
          "components": [
            {
              "internalType": "address",
              "name": "treasury",
              "type": "address"
            },
            {
              "internalType": "uint256",
              "name": "basisPoints",
              "type": "uint256"
            }
          ],
          "internalType": "struct I8BallCueMinter.RoyaltyConfig",
          "name": "config",
          "type": "tuple"
        }
      ],
      "name": "setCollectionRoyaltyConfig",
      "outputs": [],
      "stateMutability": "nonpayable",
      "type": "function"
    },
    {
      "inputs": [
        {
          "internalType": "uint256",
          "name": "value",
          "type": "uint256"
        }
      ],
      "name": "setCounter",
      "outputs": [],
      "stateMutability": "nonpayable",
      "type": "function"
    },
    {
      "inputs": [
        {
          "internalType": "address",
          "name": "_cue",
          "type": "address"
        }
      ],
      "name": "setCue",
      "outputs": [],
      "stateMutability": "nonpayable",
      "type": "function"
    },
    {
      "inputs": [
        {
          "internalType": "address",
          "name": "_treasury",
          "type": "address"
        }
      ],
      "name": "setTreasury",
      "outputs": [],
      "stateMutability": "nonpayable",
      "type": "function"
    },
    {
      "inputs": [
        {
          "internalType": "uint256",
          "name": "_upgradePrice",
          "type": "uint256"
        }
      ],
      "name": "setUpgradePrice",
      "outputs": [],
      "stateMutability": "nonpayable",
      "type": "function"
    },
    {
      "inputs": [
        {
          "internalType": "bytes4",
          "name": "interfaceId",
          "type": "bytes4"
        }
      ],
      "name": "supportsInterface",
      "outputs": [
        {
          "internalType": "bool",
          "name": "",
          "type": "bool"
        }
      ],
      "stateMutability": "view",
      "type": "function"
    },
    {
      "inputs": [],
      "name": "treasury",
      "outputs": [
        {
          "internalType": "address",
          "name": "",
          "type": "address"
        }
      ],
      "stateMutability": "view",
      "type": "function"
    },
    {
      "inputs": [],
      "name": "unpause",
      "outputs": [],
      "stateMutability": "nonpayable",
      "type": "function"
    },
    {
      "inputs": [
        {
          "internalType": "address",
          "name": "",
          "type": "address"
        }
      ],
      "name": "upgradeCredits",
      "outputs": [
        {
          "internalType": "uint256",
          "name": "",
          "type": "uint256"
        }
      ],
      "stateMutability": "view",
      "type": "function"
    },
    {
      "inputs": [
        {
          "internalType": "uint256",
          "name": "tokenId",
          "type": "uint256"
        },
        {
          "internalType": "uint256",
          "name": "power",
          "type": "uint256"
        },
        {
          "internalType": "uint256",
          "name": "accuracy",
          "type": "uint256"
        },
        {
          "internalType": "uint256",
          "name": "spin",
          "type": "uint256"
        },
        {
          "internalType": "uint256",
          "name": "time",
          "type": "uint256"
        }
      ],
      "name": "upgradeCue",
      "outputs": [],
      "stateMutability": "payable",
      "type": "function"
    },
    {
      "inputs": [],
      "name": "upgradePrice",
      "outputs": [
        {
          "internalType": "uint256",
          "name": "",
          "type": "uint256"
        }
      ],
      "stateMutability": "view",
      "type": "function"
    },
    {
      "inputs": [
        {
          "internalType": "address",
          "name": "newImplementation",
          "type": "address"
        }
      ],
      "name": "upgradeTo",
      "outputs": [],
      "stateMutability": "nonpayable",
      "type": "function"
    },
    {
      "inputs": [
        {
          "internalType": "address",
          "name": "newImplementation",
          "type": "address"
        },
        {
          "internalType": "bytes",
          "name": "data",
          "type": "bytes"
        }
      ],
      "name": "upgradeToAndCall",
      "outputs": [],
      "stateMutability": "payable",
      "type": "function"
    }
  ],
  "bytecode": "0x60a0604052306080523480156200001557600080fd5b506200002062000026565b620000e8565b600054610100900460ff1615620000935760405162461bcd60e51b815260206004820152602760248201527f496e697469616c697a61626c653a20636f6e747261637420697320696e697469604482015266616c697a696e6760c81b606482015260840160405180910390fd5b60005460ff9081161015620000e6576000805460ff191660ff9081179091556040519081527f7f26b83ff96e1f2b6a682f133852f6798a09c465da95921460cefb38474024989060200160405180910390a15b565b608051614ff96200012060003960008181610dcd01528181610e0d01528181611062015281816110a201526111310152614ff96000f3fe60806040526004361061031a5760003560e01c806377c9e8d0116101ab578063bec780e0116100f7578063f031bc1111610095578063fa4905921161006f578063fa4905921461097d578063fc805d9414610990578063fd2de539146109b0578063fe5ff468146109d057600080fd5b8063f031bc1114610928578063f0f442601461093d578063fa0523ce1461095d57600080fd5b8063cba9e373116100d1578063cba9e373146108a8578063cfc3b6e6146108c8578063d547741f146108f5578063e0072ada1461091557600080fd5b8063bec780e01461083a578063c4b4f5db1461085a578063ca15c8731461088857600080fd5b80639010d07c11610164578063a217fddf1161013e578063a217fddf146107d0578063aff3a785146107e5578063b173c2e7146107fa578063be5412131461081a57600080fd5b80639010d07c1461076357806391d148541461078357806395947c9d146107a357600080fd5b806377c9e8d0146106ac57806379e2e31c146106cc5780638129fc1c146106f95780638456cb591461070e578063871ff405146107235780638bb5d9c31461074357600080fd5b806337f83afd1161026a5780635679a5591161022357806361d027b3116101fd57806361d027b31461061e57806364bf53441461063f578063670216dd1461066c5780636f4cf76e1461068c57600080fd5b80635679a559146105c657806356a73ab2146105e65780635c975abb1461060657600080fd5b806337f83afd146105365780633f4ba83a1461054957806341540b2c1461055e5780634f1ef2861461057e57806352d1902d14610591578063559e775b146105a657600080fd5b8063253b6fb2116102d75780632f2ff15d116102b15780632f2ff15d146104b657806336568abe146104d65780633659cfe6146104f6578063368da1681461051657600080fd5b8063253b6fb214610446578063287ad39f14610466578063298dd1bb1461047d57600080fd5b806301ffc9a71461031f5780630bca773c1461035457806312615d26146103765780631430bc51146103a35780631fe543e3146103e7578063248a9ca314610407575b600080fd5b34801561032b57600080fd5b5061033f61033a366004614227565b6109fe565b60405190151581526020015b60405180910390f35b34801561036057600080fd5b5061037461036f366004614269565b610a29565b005b34801561038257600080fd5b50610396610391366004614296565b610b58565b60405161034b91906142ea565b3480156103af57600080fd5b506103c36103be366004614296565b610b9d565b6040805182516001600160a01b03168152602092830151928101929092520161034b565b3480156103f357600080fd5b50610374610402366004614344565b610c10565b34801561041357600080fd5b50610438610422366004614296565b600090815261012d602052604090206001015490565b60405190815260200161034b565b34801561045257600080fd5b5061037461046136600461440b565b610c98565b34801561047257600080fd5b506104386102275481565b34801561048957600080fd5b506102265461049e906001600160a01b031681565b6040516001600160a01b03909116815260200161034b565b3480156104c257600080fd5b506103746104d1366004614437565b610d1e565b3480156104e257600080fd5b506103746104f1366004614437565b610d49565b34801561050257600080fd5b50610374610511366004614467565b610dc3565b34801561052257600080fd5b5061037461053136600461440b565b610ea2565b610374610544366004614296565b610f1f565b34801561055557600080fd5b50610374610fea565b34801561056a57600080fd5b5061033f610579366004614437565b61100b565b61037461058c366004614484565b611058565b34801561059d57600080fd5b50610438611124565b3480156105b257600080fd5b506104386105c1366004614296565b6111d7565b3480156105d257600080fd5b506103746105e1366004614578565b611250565b3480156105f257600080fd5b506103746106013660046145d4565b61130c565b34801561061257600080fd5b5060335460ff1661033f565b34801561062a57600080fd5b506102255461049e906001600160a01b031681565b34801561064b57600080fd5b5061065f61065a366004614696565b61143f565b60405161034b91906146f0565b34801561067857600080fd5b50610374610687366004614578565b611557565b34801561069857600080fd5b5061033f6106a7366004614296565b611613565b3480156106b857600080fd5b506103746106c7366004614269565b611657565b3480156106d857600080fd5b506106ec6106e7366004614467565b61176f565b60405161034b9190614711565b34801561070557600080fd5b506103746118ca565b34801561071a57600080fd5b50610374611a7f565b34801561072f57600080fd5b5061037461073e36600461440b565b611a9e565b34801561074f57600080fd5b5061037461075e366004614296565b611b2b565b34801561076f57600080fd5b5061049e61077e366004614696565b611b48565b34801561078f57600080fd5b5061033f61079e366004614437565b611b61565b3480156107af57600080fd5b506107c36107be366004614296565b611b8d565b60405161034b9190614754565b3480156107dc57600080fd5b50610438600081565b3480156107f157600080fd5b50610396611bf7565b34801561080657600080fd5b5061037461081536600461440b565b611c09565b34801561082657600080fd5b50610374610835366004614467565b611c96565b34801561084657600080fd5b50610374610855366004614269565b611cd0565b34801561086657600080fd5b50610438610875366004614467565b61022d6020526000908152604090205481565b34801561089457600080fd5b506104386108a3366004614296565b611d9f565b3480156108b457600080fd5b506103746108c336600461476b565b611db7565b3480156108d457600080fd5b506108e86108e3366004614296565b611e1a565b60405161034b919061478e565b34801561090157600080fd5b50610374610910366004614437565b611e5f565b6103746109233660046147db565b611e85565b34801561093457600080fd5b50610374612220565b34801561094957600080fd5b50610374610958366004614467565b612384565b34801561096957600080fd5b506107c3610978366004614296565b612442565b61037461098b366004614696565b6124a9565b34801561099c57600080fd5b506103746109ab366004614296565b6125cb565b3480156109bc57600080fd5b506103746109cb366004614578565b612655565b3480156109dc57600080fd5b506104386109eb366004614467565b61022c6020526000908152604090205481565b6000632165eccb60e21b6001600160e01b031983161480610a235750610a2382612844565b92915050565b610a40600080516020614fa4833981519152612869565b610a4c61022883612873565b610a715760405162461bcd60e51b8152600401610a6890614816565b60405180910390fd5b42813511610ad05760405162461bcd60e51b815260206004820152602660248201527f3842616c6c4375654d696e7465723a3a496e76616c6964206d696e7420737461604482015265727454696d6560d01b6064820152608401610a68565b6000816020013511610b2f5760405162461bcd60e51b815260206004820152602260248201527f3842616c6c4375654d696e7465723a3a496e76616c6964206d696e7420707269604482015261636560f01b6064820152608401610a68565b600082815261022a602090815260409091208235815590820135600182015581815b5050505050565b6060610b6661022883612873565b610b825760405162461bcd60e51b8152600401610a6890614816565b600082815261022a60205260409020610a239060080161288b565b6040805180820190915260008082526020820152610bbd61022883612873565b610bd95760405162461bcd60e51b8152600401610a6890614816565b50600090815261022a6020908152604091829020825180840190935260068101546001600160a01b03168352600701549082015290565b6101bf546001600160a01b03163314610c8a5760405162461bcd60e51b815260206004820152603660248201527f436861696e6c696e6b565246436f6e73756d6572426173653a3a4f6e6c7920636044820152751bdbdc991a5b985d1bdc8818d85b88199d5b199a5b1b60521b6064820152608401610a68565b610c948282612898565b5050565b610caf600080516020614fa4833981519152612869565b6001600160a01b038216600090815261022d6020526040902054811115610cec57506001600160a01b0316600090815261022d6020526040812055565b6001600160a01b038216600090815261022d602052604081208054839290610d15908490614875565b90915550505050565b600082815261012d6020526040902060010154610d3a81612869565b610d4483836128e7565b505050565b6001600160a01b0381163314610db95760405162461bcd60e51b815260206004820152602f60248201527f416363657373436f6e74726f6c3a2063616e206f6e6c792072656e6f756e636560448201526e103937b632b9903337b91039b2b63360891b6064820152608401610a68565b610c94828261290a565b6001600160a01b037f0000000000000000000000000000000000000000000000000000000000000000163003610e0b5760405162461bcd60e51b8152600401610a6890614888565b7f00000000000000000000000000000000000000000000000000000000000000006001600160a01b0316610e54600080516020614f5d833981519152546001600160a01b031690565b6001600160a01b031614610e7a5760405162461bcd60e51b8152600401610a68906148d4565b610e838161292d565b60408051600080825260208201909252610e9f91839190612944565b50565b610eb9600080516020614fa4833981519152612869565b6001600160a01b038216600090815261022c6020526040902054811115610ef657506001600160a01b0316600090815261022c6020526040812055565b6001600160a01b038216600090815261022c602052604081208054839290610d15908490614875565b610f27612aaf565b610f2f612af5565b610f3881612b4e565b60408051600380825260808201909252600091602082016060803683370190505090508181600081518110610f6f57610f6f614920565b602002602001018181525050610f83612c58565b81600181518110610f9657610f96614920565b602002602001018181525050610fab82612c7b565b81600281518110610fbe57610fbe614920565b602002602001018181525050610fd633600183612e77565b610fdf82612b4e565b50610e9f600160c955565b611001600080516020614fa4833981519152612869565b611009613003565b565b600061101961022884612873565b6110355760405162461bcd60e51b8152600401610a6890614816565b600083815261022a602052604090206110519060040183613055565b9392505050565b6001600160a01b037f00000000000000000000000000000000000000000000000000000000000000001630036110a05760405162461bcd60e51b8152600401610a6890614888565b7f00000000000000000000000000000000000000000000000000000000000000006001600160a01b03166110e9600080516020614f5d833981519152546001600160a01b031690565b6001600160a01b03161461110f5760405162461bcd60e51b8152600401610a68906148d4565b6111188261292d565b610c9482826001612944565b6000306001600160a01b037f000000000000000000000000000000000000000000000000000000000000000016146111c45760405162461bcd60e51b815260206004820152603860248201527f555550535570677261646561626c653a206d757374206e6f742062652063616c60448201527f6c6564207468726f7567682064656c656761746563616c6c00000000000000006064820152608401610a68565b50600080516020614f5d83398151915290565b600081815261022a602052604081206002810154815483929142916111fc9190614936565b11156112385761120f6004820133613055565b1561123857600381015460018201546127109161122b91614949565b611235919061497e565b91505b6001810154611248908390614875565b949350505050565b611267600080516020614fa4833981519152612869565b61127361022884612873565b61128f5760405162461bcd60e51b8152600401610a6890614816565b806112ac5760405162461bcd60e51b8152600401610a6890614992565b600083815261022a60205260408120905b82811015610b51576112f98484838181106112da576112da614920565b90506020020160208101906112ef9190614467565b6004840190613077565b5080611304816149d3565b9150506112bd565b611323600080516020614fa4833981519152612869565b61132f6102288861308c565b61138a5760405162461bcd60e51b815260206004820152602660248201527f3842616c6c4375654d696e7465723a3a4578697374696e6720636f6c6c6563746044820152651a5bdb88125160d21b6064820152608401610a68565b600087815261022a602090815260409091208535815585820135600182015584356002820155908401356003820155600b8101805460ff191684151517905581611435576102265460405162a4bcfb60e11b81526001600160a01b039091169063014979f690611402908b908b908b90600401614a15565b600060405180830381600087803b15801561141c57600080fd5b505af1158015611430573d6000803e3d6000fd5b505050505b5050505050505050565b604080518082019091526000808252602082015261145f61022884612873565b61147b5760405162461bcd60e51b8152600401610a6890614816565b600083815261022a602052604090206114976008820184612873565b6114fd5760405162461bcd60e51b815260206004820152603160248201527f3842616c6c4375654d696e7465723a3a4e6f6e2d6578697374656e74206f72206044820152701cdbdb190b5bdd5d0819195cda59db9259607a1b6064820152608401610a68565b6000838152600a820160205260409081902081518083019092528054829060ff16600481111561152f5761152f6146b8565b6004811115611540576115406146b8565b815260200160018201548152505091505092915050565b61156e600080516020614fa4833981519152612869565b61157a61022884612873565b6115965760405162461bcd60e51b8152600401610a6890614816565b806115b35760405162461bcd60e51b8152600401610a6890614992565b600083815261022a60205260408120905b82811015610b51576116008484838181106115e1576115e1614920565b90506020020160208101906115f69190614467565b6004840190613098565b508061160b816149d3565b9150506115c4565b600061162161022883612873565b61163d5760405162461bcd60e51b8152600401610a6890614816565b50600090815261022a60205260409020600b015460ff1690565b61166e600080516020614fa4833981519152612869565b61167a61022883612873565b6116965760405162461bcd60e51b8152600401610a6890614816565b60208101351580156116a757508035155b806116c057506020810135158015906116c05750803515155b6116dc5760405162461bcd60e51b8152600401610a6890614a2f565b6127108160200135106117445760405162461bcd60e51b815260206004820152602a60248201527f3842616c6c4375654d696e7465723a3a496e76616c696420616c6c6f776c69736044820152691d08191a5cd8dbdd5b9d60b21b6064820152608401610a68565b600082815261022a602052604090208160028201610b51828281358155602082013560018201555050565b61179360405180606001604052806000815260200160608152602001606081525090565b61179f6101f583613055565b6117eb5760405162461bcd60e51b815260206004820181905260248201527f436861696e6c696e6b565246436f6e73756d65723a3a4e6f20726571756573746044820152606401610a68565b6001600160a01b03821660009081526101f460209081526040918290208251606081018452815481526001820180548551818602810186019096528086529194929385810193929083018282801561186257602002820191906000526020600020905b81548152602001906001019080831161184e575b50505050508152602001600282018054806020026020016040519081016040528092919081815260200182805480156118ba57602002820191906000526020600020905b8154815260200190600101908083116118a6575b5050505050815250509050919050565b600054610100900460ff16158080156118ea5750600054600160ff909116105b806119045750303b158015611904575060005460ff166001145b6119675760405162461bcd60e51b815260206004820152602e60248201527f496e697469616c697a61626c653a20636f6e747261637420697320616c72656160448201526d191e481a5b9a5d1a585b1a5e995960921b6064820152608401610a68565b6000805460ff19166001179055801561198a576000805461ff0019166101001790555b6119926130ad565b61199a6130dc565b6119a26131d6565b6119aa6131fd565b6119b26131d6565b6119f473d5d517abe5cf79b7e95ec98db0f0277788aff6347f83250c5584ffa93feb6ee082981c5ebe484c865196750b39835ad4f13780435d6067600161322c565b6706f05b59d3b200006102275561022680546001600160a01b03191673ecc82f602a7982a9464844dee6dbc751e3615bb4179055611a3761022b80546001019055565b8015610e9f576000805461ff0019169055604051600181527f7f26b83ff96e1f2b6a682f133852f6798a09c465da95921460cefb38474024989060200160405180910390a150565b611a96600080516020614fa4833981519152612869565b6110096132b8565b611ab5600080516020614fa4833981519152612869565b6001600160a01b038216600090815261022c6020526040902054606490611add908390614936565b1115611b0257506001600160a01b0316600090815261022c6020526040902060649055565b6001600160a01b038216600090815261022c602052604081208054839290610d15908490614936565b611b42600080516020614fa4833981519152612869565b61022b55565b600082815261015f6020526040812061105190836132f5565b600091825261012d602090815260408084206001600160a01b0393909316845291905290205460ff1690565b6040805180820190915260008082526020820152611bad61022883612873565b611bc95760405162461bcd60e51b8152600401610a6890614816565b50600090815261022a6020908152604091829020825180840190935260028101548352600301549082015290565b6060611c0461022861288b565b905090565b611c20600080516020614fa4833981519152612869565b6001600160a01b038216600090815261022d6020526040902054606490611c48908390614936565b1115611c6d57506001600160a01b0316600090815261022d6020526040902060649055565b6001600160a01b038216600090815261022d602052604081208054839290610d15908490614936565b611cad600080516020614fa4833981519152612869565b61022680546001600160a01b0319166001600160a01b0392909216919091179055565b611ce7600080516020614fa4833981519152612869565b611cf361022883612873565b611d0f5760405162461bcd60e51b8152600401610a6890614816565b6020810135158015611d3657506000611d2b6020830183614467565b6001600160a01b0316145b80611d655750602081013515801590611d6557506000611d596020830183614467565b6001600160a01b031614155b611d815760405162461bcd60e51b8152600401610a6890614a2f565b600082815261022a602052604090208160068201610b518282614a75565b600081815261015f60205260408120610a2390613301565b611dce600080516020614fa4833981519152612869565b611dda61022883612873565b611df65760405162461bcd60e51b8152600401610a6890614816565b600091825261022a6020526040909120600b01805460ff1916911515919091179055565b6060611e2861022883612873565b611e445760405162461bcd60e51b8152600401610a6890614816565b600082815261022a60205260409020610a239060040161288b565b600082815261012d6020526040902060010154611e7b81612869565b610d44838361290a565b611e8d612aaf565b611e95612af5565b610226546040516334985b9960e01b8152600481018790526001600160a01b039091169060009082906334985b999060240160e060405180830381865afa158015611ee4573d6000803e3d6000fd5b505050506040513d601f19601f82011682018060405250810190611f089190614ab8565b905060008082516004811115611f2057611f206146b8565b14611f485781516004811115611f3857611f386146b8565b611f43906006614936565b611f4b565b60055b905060008486611f5b898b614936565b611f659190614936565b611f6f9190614936565b33600090815261022d6020526040902054909150811015611fb95733600090815261022d602052604081208054839290611faa908490614875565b9091555060009150611fe89050565b33600090815261022d6020526040902054611fd49082614875565b33600090815261022d602052604081205590505b610227546000908688611ffb8b8d614936565b6120059190614936565b61200f9190614936565b6120199190614949565b9050801561207e57803410156120415760405162461bcd60e51b8152600401610a6890614b45565b610225546040516001600160a01b039091169082156108fc029083906000818181858888f1935050505015801561207c573d6000803e3d6000fd5b505b88846060018181516120909190614936565b9052506080840180518991906120a7908390614936565b90525060a0840180518891906120be908390614936565b90525060c0840180518791906120d5908390614936565b905250606084015183108015906120f0575082846080015111155b80156121005750828460a0015111155b80156121105750828460c0015111155b61216c5760405162461bcd60e51b815260206004820152602760248201527f3842616c6c4375654d696e7465723a3a496e76616c6964207570677261646520604482015266616d6f756e747360c81b6064820152608401610a68565b604051637ec0722d60e11b81526001600160a01b0386169063fd80e45a9061219c9033908e908990600401614b89565b600060405180830381600087803b1580156121b657600080fd5b505af11580156121ca573d6000803e3d6000fd5b505050602085015185516040513393507f5cfa1078ee34a46e31f28532801a74fda1a0cd45b83f4c78c7fbb24abec85e4192612209928f928790614bf7565b60405180910390a25050505050610b51600160c955565b612228612aaf565b612230612af5565b60008061223c3361330b565b9150915060008251116122a25760405162461bcd60e51b815260206004820152602860248201527f3842616c6c4375654d696e7465723a3a52657175657374206973207374696c6c6044820152672070656e64696e6760c01b6064820152608401610a68565b600061231b826000815181106122ba576122ba614920565b60200260200101516122fb61022a6000866000815181106122dd576122dd614920565b6020026020010151815260200190815260200160002060080161288b565b8560008151811061230e5761230e614920565b602002602001015161347f565b90506123778260008151811061233357612333614920565b6020026020010151828460028151811061234f5761234f614920565b60200260200101518560018151811061236a5761236a614920565b6020026020010151613669565b505050611009600160c955565b61239b600080516020614fa4833981519152612869565b6001600160a01b038116158015906123c25750610225546001600160a01b03828116911614155b61241f5760405162461bcd60e51b815260206004820152602860248201527f3842616c6c4375654d696e7465723a3a496e76616c6964207472656173757279604482015267206164647265737360c01b6064820152608401610a68565b61022580546001600160a01b0319166001600160a01b0392909216919091179055565b604080518082019091526000808252602082015261246261022883612873565b61247e5760405162461bcd60e51b8152600401610a6890614816565b50600090815261022a6020908152604091829020825180840190935280548352600101549082015290565b6124b1612aaf565b6124b9612af5565b6124c282612b4e565b600082815261022a60205260409020600b015460ff161561253e5760405162461bcd60e51b815260206004820152603060248201527f3842616c6c4375654d696e7465723a3a496e76616c696420737065636966696360448201526f1036b4b73a1031b7b63632b1ba34b7b760811b6064820152608401610a68565b600082815261022a6020526040902061255a9060080182612873565b6125a65760405162461bcd60e51b815260206004820181905260248201527f3842616c6c4375654d696e7465723a3a496e76616c69642064657369676e49646044820152606401610a68565b6125c182826125b485612c7b565b6125bc612c58565b613669565b610c94600160c955565b6125e2600080516020614fa4833981519152612869565b6000811180156125f55750610227548114155b61264f5760405162461bcd60e51b815260206004820152602560248201527f3842616c6c4375654d696e7465723a3a496e76616c6964205570677261646520604482015264507269636560d81b6064820152608401610a68565b61022755565b61266c600080516020614fa4833981519152612869565b61267861022884612873565b6126945760405162461bcd60e51b8152600401610a6890614816565b600083815261022a60205260408120905b828110156127e0576126e28484838181106126c2576126c2614920565b90506020028101906126d49190614c21565b60088401906020013561308c565b50604051806040016040528085858481811061270057612700614920565b90506020028101906127129190614c21565b612720906020810190614c41565b6004811115612731576127316146b8565b815260200185858481811061274857612748614920565b905060200281019061275a9190614c21565b604001359052600a8301600086868581811061277857612778614920565b905060200281019061278a9190614c21565b602090810135825281019190915260400160002081518154829060ff191660018360048111156127bc576127bc6146b8565b021790555060209190910151600190910155806127d8816149d3565b9150506126a5565b506102265460405163fd2de53960e01b81526001600160a01b039091169063fd2de5399061281690879087908790600401614c5e565b600060405180830381600087803b15801561283057600080fd5b505af1158015611435573d6000803e3d6000fd5b60006001600160e01b03198216631e78b8c760e21b1480610a235750610a23826137c0565b610e9f81336137e5565b60008181526001830160205260408120541515611051565b606060006110518361383e565b60006128a66101f78461389a565b6001600160a01b03811660009081526101f4602090815260409091208451929350916128da916002840191908601906141ad565b50610b516101f7856138a6565b6128f182826138b2565b600082815261015f60205260409020610d449082613098565b6129148282613939565b600082815261015f60205260409020610d449082613077565b610e9f600080516020614fa4833981519152612869565b7f4910fdfa16fed3260ed0e7147f7cc6da11a60208b5b9406d12a635614ffd91435460ff161561297757610d44836139a1565b826001600160a01b03166352d1902d6040518163ffffffff1660e01b8152600401602060405180830381865afa9250505080156129d1575060408051601f3d908101601f191682019092526129ce91810190614d52565b60015b612a345760405162461bcd60e51b815260206004820152602e60248201527f45524331393637557067726164653a206e657720696d706c656d656e7461746960448201526d6f6e206973206e6f74205555505360901b6064820152608401610a68565b600080516020614f5d8339815191528114612aa35760405162461bcd60e51b815260206004820152602960248201527f45524331393637557067726164653a20756e737570706f727465642070726f786044820152681a58589b195555525160ba1b6064820152608401610a68565b50610d44838383613a3d565b60335460ff16156110095760405162461bcd60e51b815260206004820152601060248201526f14185d5cd8589b194e881c185d5cd95960821b6044820152606401610a68565b600260c95403612b475760405162461bcd60e51b815260206004820152601f60248201527f5265656e7472616e637947756172643a207265656e7472616e742063616c6c006044820152606401610a68565b600260c955565b612b5a61022882612873565b612b765760405162461bcd60e51b8152600401610a6890614816565b600081815261022a602052604090205442101580612b985750612b9833613a68565b612bf05760405162461bcd60e51b8152602060048201526024808201527f3842616c6c4375654d696e7465723a3a4d696e7420686173206e6f74207374616044820152631c9d195960e21b6064820152608401610a68565b600081815261022a60205260408120612c0b90600801613301565b11610e9f5760405162461bcd60e51b815260206004820152601860248201527f3842616c6c4375654d696e7465723a3a536f6c64206f757400000000000000006044820152606401610a68565b600080612c6561022b5490565b9050612c7661022b80546001019055565b919050565b33600090815261022c602052604081205415612cba5733600090815261022c60205260408120805491612cad83614d6b565b9091555060009392505050565b6000612cc5836111d7565b90508034811115612ce85760405162461bcd60e51b8152600401610a6890614b45565b600084815261022a6020526040902060060180546001600160a01b031615612e32576000612710826001015485612d1f9190614949565b612d29919061497e565b9050612d358184614875565b610225546040519194506000916001600160a01b039091169083908381818185875af1925050503d8060008114612d88576040519150601f19603f3d011682016040523d82523d6000602084013e612d8d565b606091505b505090508015612de557825460408051898152602081018590526001600160a01b039092169133917f98ffdf4f5be5af8de356ea9db372549d2182650280d5234acb94a9955e788c56910160405180910390a3612e2f565b825460408051898152602081018590526001600160a01b039092169133917f820d26b4d2455e90e3d3f84dc019d6873705f91d9ec310888cc6357f0914988d910160405180910390a35b50505b610225546040516001600160a01b039091169083156108fc029084906000818181858888f19350505050158015612e6d573d6000803e3d6000fd5b5091949350505050565b612e836101f584613055565b15612edf5760405162461bcd60e51b815260206004820152602660248201527f436861696e6c696e6b565246436f6e73756d65723a3a4578697374696e672072604482015265195c5d595cdd60d21b6064820152608401610a68565b6000612eed83614e20614d82565b612efa90620186a0614dae565b6001600160a01b0385811660009081526101f46020526040908190206101f1546101f2546101f35493516305d3b1d360e41b8152600481019190915267ffffffffffffffff84166024820152600160401b90930461ffff16604484015263ffffffff8086166064850152881660848401529394509290911690635d3b1d309060a4016020604051808303816000875af1158015612f9b573d6000803e3d6000fd5b505050506040513d601f19601f82011682018060405250810190612fbf9190614d52565b81558251612fd690600183019060208601906141ad565b50612fe36101f586613098565b508054612ff4906101f79087613a82565b505050505050565b600160c955565b61300b613a98565b6033805460ff191690557f5db9ee0a495bf2e6ff9c91a7834c1ba4fdd244a5e8aa4e537bd38aeae4b073aa335b6040516001600160a01b03909116815260200160405180910390a1565b6001600160a01b03811660009081526001830160205260408120541515611051565b6000611051836001600160a01b038416613ae1565b60006110518383613bdb565b6000611051836001600160a01b038416613bdb565b600054610100900460ff166130d45760405162461bcd60e51b8152600401610a6890614dcb565b611009613c2a565b600054610100900460ff166131035760405162461bcd60e51b8152600401610a6890614dcb565b61310b6131d6565b6131166000336128e7565b61312e600080516020614fa4833981519152336128e7565b6131587f364d3d7565c7a8300c96fd53e065d19b65848d7b23b3191adcd55621c744223c336128e7565b6131827f9f2df0fed2c77648de5860a4cc508cd0818c85b8b8a1ab4ceeef8d981c8956a6336128e7565b6131ac7ff18b77e1ef402111bacb54bd5e03494cbdba92fbd1bd3bbcc1ce77e69b42ea6c336128e7565b6110097f52ba824bfabc2bcfcdf7f0edbb486ebb05e1836c90e78047efeb949990f72e5f336128e7565b600054610100900460ff166110095760405162461bcd60e51b8152600401610a6890614dcb565b600054610100900460ff166132245760405162461bcd60e51b8152600401610a6890614dcb565b611009613c5d565b600054610100900460ff166132535760405162461bcd60e51b8152600401610a6890614dcb565b61325c84613c84565b6101f180546001600160a01b039095166001600160a01b0319909516949094179093556101f380546101f29390935561ffff909316600160401b0269ffffffffffffffffffff1990921667ffffffffffffffff90911617179055565b6132c0612aaf565b6033805460ff191660011790557f62e78cea01bee320cd4e420270b5ea74000d11b0c9f74754ebdbfc544b05a2586130383390565b60006110518383613d47565b6000610a23825490565b60608061331a6101f584613055565b6133665760405162461bcd60e51b815260206004820181905260248201527f436861696e6c696e6b565246436f6e73756d65723a3a4e6f20726571756573746044820152606401610a68565b6001600160a01b03831660009081526101f460209081526040918290206002810180548451818502810185019095528085529193929091908301828280156133cd57602002820191906000526020600020905b8154815260200190600101908083116133b9575b505050505092508060010180548060200260200160405190810160405280929190818152602001828054801561342257602002820191906000526020600020905b81548152602001906001019080831161340e575b5050505050915061343e846101f561307790919063ffffffff16565b506001600160a01b03841660009081526101f4602052604081208181559061346960018301826141f8565b6134776002830160006141f8565b505050915091565b600080805b84518110156134f15761022a6000878152602001908152602001600020600a0160008683815181106134b8576134b8614920565b6020026020010151815260200190815260200160002060010154826134dd9190614936565b9150806134e9816149d3565b915050613484565b5060006134fe8285614e16565b90506000805b865181101561360657600061022a60008a8152602001908152602001600020600a01600089848151811061353a5761353a614920565b60200260200101518152602001908152602001600020600101548361355f9190614936565b905061356c600182614875565b84116135f2577f30df3c3d54e931c55cce4efd14aa05a324344df80b8bc9f50a548c04e62bd6bd878686848c8d88815181106135aa576135aa614920565b60200260200101516040516135c496959493929190614e2a565b60405180910390a18782815181106135de576135de614920565b602002602001015195505050505050611051565b9150806135fe816149d3565b915050613504565b5060405162461bcd60e51b815260206004820152603160248201527f3842616c6c4375654d696e7465723a3a4572726f722063616c63756c6174696e60448201527019c81c985b991bdb4819195cda59db9259607a1b6064820152608401610a68565b600084815261022a60209081526040808320868452600a81019092528220600181018054929391929161369b83614d6b565b919050555080600101546000036136bb576136b96008830186613d71565b505b610226546040805160e0810190915282546001600160a01b03909216916301e65df1913391879190819060ff1660048111156136f9576136f96146b8565b81526020018b81526020018a815260200160018152602001600181526020016001815260200160018152506040518463ffffffff1660e01b815260040161374293929190614b89565b600060405180830381600087803b15801561375c57600080fd5b505af1158015613770573d6000803e3d6000fd5b505082546040513393507f20a1a53afff5899d6a197cadef7db93281256627d98124e9756d69cef4c83f0592506137b09187918b9160ff16908a90614bf7565b60405180910390a2505050505050565b60006001600160e01b03198216631fe543e360e01b1480610a235750610a2382613d7d565b6137ef8282611b61565b610c94576137fc81613da2565b613807836020613db4565b604051602001613818929190614e8c565b60408051601f198184030181529082905262461bcd60e51b8252610a6891600401614f01565b60608160000180548060200260200160405190810160405280929190818152602001828054801561388e57602002820191906000526020600020905b81548152602001906001019080831161387a575b50505050509050919050565b60006110518383613f50565b60006110518383613fc0565b6138bc8282611b61565b610c9457600082815261012d602090815260408083206001600160a01b03851684529091529020805460ff191660011790556138f53390565b6001600160a01b0316816001600160a01b0316837f2f8788117e7eff1d82e926ec794901d17c78024a50270940304540a733656f0d60405160405180910390a45050565b6139438282611b61565b15610c9457600082815261012d602090815260408083206001600160a01b0385168085529252808320805460ff1916905551339285917ff6391f5c32d9c69d2a47ea670b442974b53935d1edc7fd64eb21e047a839171b9190a45050565b6001600160a01b0381163b613a0e5760405162461bcd60e51b815260206004820152602d60248201527f455243313936373a206e657720696d706c656d656e746174696f6e206973206e60448201526c1bdd08184818dbdb9d1c9858dd609a1b6064820152608401610a68565b600080516020614f5d83398151915280546001600160a01b0319166001600160a01b0392909216919091179055565b613a4683613fdd565b600082511180613a535750805b15610d4457613a62838361401d565b50505050565b6000610a23600080516020614fa483398151915283611b61565b600061124884846001600160a01b038516614111565b60335460ff166110095760405162461bcd60e51b815260206004820152601460248201527314185d5cd8589b194e881b9bdd081c185d5cd95960621b6044820152606401610a68565b60008181526001830160205260408120548015613bca576000613b05600183614875565b8554909150600090613b1990600190614875565b9050818114613b7e576000866000018281548110613b3957613b39614920565b9060005260206000200154905080876000018481548110613b5c57613b5c614920565b6000918252602080832090910192909255918252600188019052604090208390555b8554869080613b8f57613b8f614f34565b600190038181906000526020600020016000905590558560010160008681526020019081526020016000206000905560019350505050610a23565b6000915050610a23565b5092915050565b6000818152600183016020526040812054613c2257508154600181810184556000848152602080822090930184905584548482528286019093526040902091909155610a23565b506000610a23565b600054610100900460ff16613c515760405162461bcd60e51b8152600401610a6890614dcb565b6033805460ff19169055565b600054610100900460ff16612ffc5760405162461bcd60e51b8152600401610a6890614dcb565b600054610100900460ff16613cab5760405162461bcd60e51b8152600401610a6890614dcb565b613cb36131d6565b6001600160a01b038116613d245760405162461bcd60e51b815260206004820152603260248201527f436861696e6c696e6b565246436f6e73756d6572426173653a3a436f6f7264696044820152716e61746f72207a65726f206164647265737360701b6064820152608401610a68565b6101bf80546001600160a01b0319166001600160a01b0392909216919091179055565b6000826000018281548110613d5e57613d5e614920565b9060005260206000200154905092915050565b60006110518383613ae1565b60006001600160e01b03198216635a05180f60e01b1480610a235750610a238261412e565b6060610a236001600160a01b03831660145b60606000613dc3836002614949565b613dce906002614936565b67ffffffffffffffff811115613de657613de66142fd565b6040519080825280601f01601f191660200182016040528015613e10576020820181803683370190505b509050600360fc1b81600081518110613e2b57613e2b614920565b60200101906001600160f81b031916908160001a905350600f60fb1b81600181518110613e5a57613e5a614920565b60200101906001600160f81b031916908160001a9053506000613e7e846002614949565b613e89906001614936565b90505b6001811115613f01576f181899199a1a9b1b9c1cb0b131b232b360811b85600f1660108110613ebd57613ebd614920565b1a60f81b828281518110613ed357613ed3614920565b60200101906001600160f81b031916908160001a90535060049490941c93613efa81614d6b565b9050613e8c565b5083156110515760405162461bcd60e51b815260206004820181905260248201527f537472696e67733a20686578206c656e67746820696e73756666696369656e746044820152606401610a68565b600081815260028301602052604081205480151580613f745750613f748484614163565b6110515760405162461bcd60e51b815260206004820152601e60248201527f456e756d657261626c654d61703a206e6f6e6578697374656e74206b657900006044820152606401610a68565b600081815260028301602052604081208190556110518383613d71565b613fe6816139a1565b6040516001600160a01b038216907fbc7cd75a20ee27fd9adebab32041f755214dbc6bffa90cc0225b39da2e5c2d3b90600090a250565b60606001600160a01b0383163b6140855760405162461bcd60e51b815260206004820152602660248201527f416464726573733a2064656c65676174652063616c6c20746f206e6f6e2d636f6044820152651b9d1c9858dd60d21b6064820152608401610a68565b600080846001600160a01b0316846040516140a09190614f4a565b600060405180830381855af49150503d80600081146140db576040519150601f19603f3d011682016040523d82523d6000602084013e6140e0565b606091505b50915091506141088282604051806060016040528060278152602001614f7d6027913961416f565b95945050505050565b60008281526002840160205260408120829055611248848461308c565b60006001600160e01b03198216637965db0b60e01b1480610a2357506301ffc9a760e01b6001600160e01b0319831614610a23565b60006110518383612873565b6060831561417e575081611051565b61105183838151156141935781518083602001fd5b8060405162461bcd60e51b8152600401610a689190614f01565b8280548282559060005260206000209081019282156141e8579160200282015b828111156141e85782518255916020019190600101906141cd565b506141f4929150614212565b5090565b5080546000825590600052602060002090810190610e9f91905b5b808211156141f45760008155600101614213565b60006020828403121561423957600080fd5b81356001600160e01b03198116811461105157600080fd5b60006040828403121561426357600080fd5b50919050565b6000806060838503121561427c57600080fd5b8235915061428d8460208501614251565b90509250929050565b6000602082840312156142a857600080fd5b5035919050565b600081518084526020808501945080840160005b838110156142df578151875295820195908201906001016142c3565b509495945050505050565b60208152600061105160208301846142af565b634e487b7160e01b600052604160045260246000fd5b604051601f8201601f1916810167ffffffffffffffff8111828210171561433c5761433c6142fd565b604052919050565b6000806040838503121561435757600080fd5b8235915060208084013567ffffffffffffffff8082111561437757600080fd5b818601915086601f83011261438b57600080fd5b81358181111561439d5761439d6142fd565b8060051b91506143ae848301614313565b81815291830184019184810190898411156143c857600080fd5b938501935b838510156143e6578435825293850193908501906143cd565b8096505050505050509250929050565b6001600160a01b0381168114610e9f57600080fd5b6000806040838503121561441e57600080fd5b8235614429816143f6565b946020939093013593505050565b6000806040838503121561444a57600080fd5b82359150602083013561445c816143f6565b809150509250929050565b60006020828403121561447957600080fd5b8135611051816143f6565b6000806040838503121561449757600080fd5b82356144a2816143f6565b915060208381013567ffffffffffffffff808211156144c057600080fd5b818601915086601f8301126144d457600080fd5b8135818111156144e6576144e66142fd565b6144f8601f8201601f19168501614313565b9150808252878482850101111561450e57600080fd5b80848401858401376000848284010152508093505050509250929050565b60008083601f84011261453e57600080fd5b50813567ffffffffffffffff81111561455657600080fd5b6020830191508360208260051b850101111561457157600080fd5b9250929050565b60008060006040848603121561458d57600080fd5b83359250602084013567ffffffffffffffff8111156145ab57600080fd5b6145b78682870161452c565b9497909650939450505050565b80358015158114612c7657600080fd5b6000806000806000806000610100888a0312156145f057600080fd5b87359650602088013567ffffffffffffffff8082111561460f57600080fd5b818a0191508a601f83011261462357600080fd5b81358181111561463257600080fd5b8b602082850101111561464457600080fd5b60208301985080975050505061465d8960408a01614251565b935061466c8960808a01614251565b925061467a60c089016145c4565b915061468860e089016145c4565b905092959891949750929550565b600080604083850312156146a957600080fd5b50508035926020909101359150565b634e487b7160e01b600052602160045260246000fd5b600581106146ec57634e487b7160e01b600052602160045260246000fd5b9052565b60006040820190506147038284516146ce565b602092830151919092015290565b6020815281516020820152600060208301516060604084015261473760808401826142af565b90506040840151601f1984830301606085015261410882826142af565b815181526020808301519082015260408101610a23565b6000806040838503121561477e57600080fd5b8235915061428d602084016145c4565b6020808252825182820181905260009190848201906040850190845b818110156147cf5783516001600160a01b0316835292840192918401916001016147aa565b50909695505050505050565b600080600080600060a086880312156147f357600080fd5b505083359560208501359550604085013594606081013594506080013592509050565b60208082526029908201527f3842616c6c4375654d696e7465723a3a4e6f6e2d6578697374656e7420636f6c6040820152681b1958dd1a5bdb925960ba1b606082015260800190565b634e487b7160e01b600052601160045260246000fd5b81810381811115610a2357610a2361485f565b6020808252602c908201527f46756e6374696f6e206d7573742062652063616c6c6564207468726f7567682060408201526b19195b1959d85d1958d85b1b60a21b606082015260800190565b6020808252602c908201527f46756e6374696f6e206d7573742062652063616c6c6564207468726f7567682060408201526b6163746976652070726f787960a01b606082015260800190565b634e487b7160e01b600052603260045260246000fd5b80820180821115610a2357610a2361485f565b60008160001904831182151516156149635761496361485f565b500290565b634e487b7160e01b600052601260045260246000fd5b60008261498d5761498d614968565b500490565b60208082526021908201527f3842616c6c4375654d696e7465723a3a456d7074792077616c6c6574206c69736040820152601d60fa1b606082015260800190565b6000600182016149e5576149e561485f565b5060010190565b81835281816020850137506000828201602090810191909152601f909101601f19169091010190565b8381526040602082015260006141086040830184866149ec565b60208082526026908201527f3842616c6c4375654d696e7465723a3a496e76616c696420726f79616c747920604082015265636f6e66696760d01b606082015260800190565b8135614a80816143f6565b81546001600160a01b0319166001600160a01b03919091161781556020919091013560019190910155565b60058110610e9f57600080fd5b600060e08284031215614aca57600080fd5b60405160e0810181811067ffffffffffffffff82111715614aed57614aed6142fd565b6040528251614afb81614aab565b808252506020830151602082015260408301516040820152606083015160608201526080830151608082015260a083015160a082015260c083015160c08201528091505092915050565b60208082526024908201527f3842616c6c4375654d696e7465723a3a496e73756666696369656e74207061796040820152631b595b9d60e21b606082015260800190565b6001600160a01b0384168152602081018390528151610120820190614bb29060408401906146ce565b6020830151606083015260408301516080830152606083015160a0830152608083015160c083015260a083015160e083015260c0830151610100830152949350505050565b8481526020810184905260808101614c1260408301856146ce565b82606083015295945050505050565b60008235607e19833603018112614c3757600080fd5b9190910192915050565b600060208284031215614c5357600080fd5b813561105181614aab565b600060408083018684526020828186015281868352606092508286019050828760051b8701018860005b89811015614d4257888303605f190184528135368c9003607e19018112614cae57600080fd5b8b0160808135614cbd81614aab565b614cc786826146ce565b508682013587860152888201358986015287820135601e19833603018112614cee57600080fd5b90910186810191903567ffffffffffffffff811115614d0c57600080fd5b803603831315614d1b57600080fd5b8189870152614d2d82870182856149ec565b96880196955050509185019150600101614c88565b50909a9950505050505050505050565b600060208284031215614d6457600080fd5b5051919050565b600081614d7a57614d7a61485f565b506000190190565b600063ffffffff80831681851681830481118215151615614da557614da561485f565b02949350505050565b63ffffffff818116838216019080821115613bd457613bd461485f565b6020808252602b908201527f496e697469616c697a61626c653a20636f6e7472616374206973206e6f74206960408201526a6e697469616c697a696e6760a81b606082015260800190565b600082614e2557614e25614968565b500690565b86815285602082015284604082015283606082015260c060808201526000614e5560c08301856142af565b90508260a0830152979650505050505050565b60005b83811015614e83578181015183820152602001614e6b565b50506000910152565b7f416363657373436f6e74726f6c3a206163636f756e7420000000000000000000815260008351614ec4816017850160208801614e68565b7001034b99036b4b9b9b4b733903937b6329607d1b6017918401918201528351614ef5816028840160208801614e68565b01602801949350505050565b6020815260008251806020840152614f20816040850160208701614e68565b601f01601f19169190910160400192915050565b634e487b7160e01b600052603160045260246000fd5b60008251614c37818460208701614e6856fe360894a13ba1a3210667c828492db98dca3e2076cc3735a920a3ca505d382bbc416464726573733a206c6f772d6c6576656c2064656c65676174652063616c6c206661696c6564a49807205ce4d355092ef5a8a18f56e8913cf4a201fbe287825b095693c21775a2646970667358221220ac672e29f9790c6f78dc31c2b890a219e814006e0ed2094ed41a821af27d84ae64736f6c63430008100033",
  "linkReferences": {},
  "deployedLinkReferences": {}
}